:020000040800F2
:10000000500800200901000811200008E51E000822
:100010000D20000895010008852700080000000059
:100020000000000000000000000000006121000846
:10003000410200080000000035200008632100088C
:100040002301000823010008230100082301000800
:1000500023010008230100082301000823010008F0
:1000600023010008230100082301000823010008E0
:1000700023010008230100082301000805020008ED
:1000800023010008230100082301000823010008C0
:1000900023010008230100082301000823010008B0
:1000A00023010008230100082301000823010008A0
:1000B0002301000823010008230100082301000890
:1000C0002301000823010008230100082301000880
:1000D00023010008752700082301000823010008F8
:1000E000230100082301000823010008DFF80CD0D9
:1000F00000F03EF8004800479D2C00085008002002
:1001000080F308887047000006488047064800478B
:10011000FEE7FEE7FEE7FEE7FEE7FEE7FEE7FEE7B7
:10012000FEE7FEE7D1210008ED000008202A04DBED
:10013000203A21FA02F00021704721FA02F3D04060
:10014000C2F120029140084319467047D2B201E043
:1001500000F8012B491EFBD270470022F6E710B5CC
:1001600013460A4604461946FFF7F0FF204610BD25
:10017000064C074D06E0E06840F0010394E80700F4
:1001800098471034AC42F6D3FFF7B4FFD4370008D9
:10019000F437000800BFFEE72DE9F04103460C46A6
:1001A000002041F2210C002127E05D5C00221EE0CE
:1001B000C2F1070845FA08F808F0010888F00108BC
:1001C00088F001064FF0010888EAD03888F001076E
:1001D0004FF6FF7808EA400087EA0608B8F1000FFA
:1001E00001D080EA0C0002F101081FFA88F2082A07
:1001F000DEDB01F101081FFA88F1A142D5DB80B2F4
:10020000BDE8F08110B5024800F054F910BD0000BF
:10021000DC00002030B590F840500124AC40C56BA4
:100220006C60046863604468102C04D10468A260A8
:100230000468E16003E00468A1600468E26030BD26
:10024000704772B600BFFEE70021074AD161074937
:10025000096941F00401054A11611146096941F03B
:100260004001116170470000200100200020024081
:100270000021074AD1610749096941F00201054A95
:10028000116111464861096941F0400111617047EF
:1002900020010020002002400022054BDA61054ABF
:1002A000126942F00102034B1A610180704700009D
:1002B000200100200020024000201E49C96801F0F2
:1002C000100139B11C49C96941F002011A4AD161D2
:1002D00040F010001749C96801F0040139B116490E
:1002E000C96941F00101144AD16140F0040011498B
:1002F000C96901F0010169B10F49C96941F00401FF
:100300000D4AD16100BF0B49C96921F00101094AB9
:10031000D16100BF00BF40F20111884206D10549FA
:10032000C96921F00101034AD16101E00149C860B6
:1003300000BF7047002002402001002070B5044635
:1003400000F084FC054609E0601C38B124B100F0DF
:100350007DFC401BA04201D9032070BD1248C0683B
:1003600000F001000028EFD10F48C06800F0200025
:1003700020B100BF20200C49C86000BF0A48C068F7
:1003800000F0100048B90848C06900F0010020B929
:100390000548C06800F0040018B1FFF78DFF012088
:1003A000DBE70020D9E700000020024001460022E0
:1003B00091F82100022808D00420886300BF0020A3
:1003C00081F8200000BF012070470868006820F015
:1003D0000E000B6818600868006820F001000B68C8
:1003E000186091F8403001209840CB6B5860012094
:1003F00081F8210000BF002081F8200000BF1046D6
:10040000E2E7000070B50446002594F821000228B8
:1004100003D00420A063012548E02068006820F094
:100420000E00216808602068006820F00100216843
:1004300008601F492068884201D1012026E01C493C
:1004400014312068884201D110201FE0184928315A
:100450002068884201D1801518E015493C31206898
:10046000884201D1801411E011495031206888423E
:1004700002D14FF4803009E00D4964312068884290
:1004800002D14FF4801001E04FF080700849083924
:100490004860012084F8210000BF002084F820007B
:1004A00000BF606B10B12046616B8847284670BD65
:1004B0000800024070B50446E06B056820680668D5
:1004C00094F84010042088402840002846D006F0C8
:1004D0000400002842D02068006800F0200028B9FD
:1004E0002068006820F004002168086057492068EF
:1004F000884201D1042027E0544914312068884201
:1005000001D1402020E0514928312068884201D1A2
:10051000001519E04D493C312068884202D14FF462
:10052000804011E0494950312068884202D14FF49F
:10053000802009E0454964312068884202D14FF4A7
:10054000800001E04FF08060404908394860E06A6F
:1005500000287AD02046E16A884776E094F8401077
:10056000022088402840A0B306F0020088B320682B
:10057000006800F0200040B92068006820F00A0000
:1005800021680860012084F82100304920688842F1
:1005900001D1022028E02D4914312068884201D180
:1005A000202021E0294928312068884201D14015C6
:1005B0001AE026493C312068884202D14FF40050AD
:1005C00012E0224950312068884203D14FF40030B4
:1005D0000AE017E01D4964312068884202D14FF4D7
:1005E000001001E04FF0007018490839486000BF62
:1005F000002084F8200000BFA06A30B32046A16A22
:10060000884722E094F84010082088402840E0B154
:1006100006F00800C8B12068006820F00E002168CC
:10062000086094F8401001208840E16B4860012088
:10063000A06384F8210000BF002084F8200000BFE0
:10064000206B10B12046216B884770BD0800024026
:100650000146002209B901207047164B0868C01AEC
:100660001423B0FBF3F08000086412480838C86314
:10067000022081F821000868026843F6F070824386
:10068000D1E901031843CB6818430B6918434B6940
:1006900018438B691843CB6918430243086802600A
:1006A00000208863012081F82100002081F82000CB
:1006B00000BFD1E7080002402DE9F04104460D4695
:1006C00016461F464FF0000800BF94F8200001288E
:1006D00002D10220BDE8F081012084F8200000BF93
:1006E00094F8210001282CD1022084F82100002058
:1006F000A0632068006820F00100216808603B4684
:10070000324629462046FFF785FDE06A30B1206871
:10071000006840F00E00216808600BE02068006867
:1007200020F00400216808602068006840F00A009A
:10073000216808602068006840F0010021680860B6
:1007400006E000BF002084F8200000BF4FF0020840
:100750004046BFE770B5044600F078FA06462546E5
:10076000681C10B104480078054400BF00F06EFA20
:10077000801BA842FAD370BD100000202DE9F04183
:1007800004460E460127002500BF2648007E0128AA
:1007900002D10220BDE8F08101202249087600BF85
:1007A0002068022813D14CF25030FFF7C7FD90BBF0
:1007B0000120FFF749FD4CF25030FFF7BFFD07461F
:1007C0001948006920F004001749086123E04CF241
:1007D0005030FFF7B3FDF0B94FF0FF303060A5683F
:1007E00012E02846FFF744FD4CF25030FFF7A6FD1B
:1007F00007460D48006920F002000B4908610FB15F
:10080000356007E005F58065D4E9021001EB802032
:10081000A842E6D800BF00BF00200249087600BF0A
:100820003846B7E720010020002002400348006955
:1008300040F080000149086100207047002002401C
:100840002DE9FE4F05468B461746984601260024A3
:100850000020029000BF2448007E012802D102201F
:10086000BDE8FE8F01202049087600BF4CF25030D1
:10087000FFF764FD064686BB012D02D101200290E0
:1008800006E0022D02D10220029001E00420029035
:1008900000241EE02201B946C24648465146FFF7F1
:1008A00045FC80B20190022000FB04B00090019949
:1008B000FFF7F2FC4CF25030FFF740FD06460B48C4
:1008C000006920F001000949086106B104E0601CDC
:1008D000C4B202988442DDDB00BF00BF00200249A1
:1008E000087600BF3046BBE7200100200020024010
:1008F00000200849096901F0800151B10649054A03
:100900005160064951601146096901F0800101B149
:10091000012070470020024023016745AB89EFCDDD
:100920002DE9F8470346002294466EE14FF0010896
:1009300008FA02F4D1F8008008EA0400A0427DD150
:10094000DFF8DCA2D1F80480A8EB0A09D0453AD040
:1009500014DCB8F1030F50D009DCB8F1000F31D02E
:10096000B8F1010F1CD0B8F1020F49D120E0B8F165
:10097000110F18D0B8F1120F42D11EE0B9F5881F3F
:1009800025D006DCB9F5803F20D0B9F5801F37D1DE
:100990001AE0B9F5001F18D0B9F5041F30D117E0DF
:1009A000D1F80CC02DE0D1F80C8008F1040C28E03F
:1009B000D1F80C8008F1080C23E0D1F80C8008F184
:1009C0000C0C1EE000BF00BF00BF00BF00BF00BF97
:1009D000D1F80880B8F1000F02D14FF0040C0BE001
:1009E000D1F80880B8F1010F03D14FF0080C1C6159
:1009F00002E04FF0080C5C6103E04FF0000C00E0F7
:100A000000BF00BFFF2801D8984601E003F10408A9
:100A10004646FF2802D84FEA820803E0A2F1080800
:100A20004FEA88084746D6F800804FF00F0909FAC8
:100A300007F928EA09080CFA07F900E088E048EA13
:100A40000908C6F80080D1F8048008F08058B8F191
:100A5000805F7DD100BFDFF8CC81D8F8188048F0E6
:100A60000108DFF8C091C9F81880C846D8F8188086
:100A700008F00108CDF8008000BF00BF4FEAB93888
:100A80004FEA920958F829504FEA82784FEA1879CC
:100A90004FF00F0808FA09F825EA0805DFF8888101
:100AA000434502D14FF0000816E0DFF8808143454E
:100AB00002D14FF001080FE0DFF87481434502D105
:100AC0004FF0020808E0DFF86C81434502D14FF097
:100AD000030801E04FF004084FEA82794FEA1979E0
:100AE00008FA09F848EA0505DFF84C814FEA92094F
:100AF00048F82950D1F8048008F48018B8F5801F10
:100B00000AD1DFF83881D8F8008048EA0008DFF819
:100B10002C91C9F8008009E0DFF82081D8F8008026
:100B200028EA0008DFF81491C9F80080D1F80480A1
:100B300008F40018B8F5001F10D1DFF8008108F1A3
:100B40000408D8F8008048EA0008DFF8F09000E0D8
:100B50005AE009F10409C9F800800DE0DFF8DC80F3
:100B600008F10408D8F8008028EA0008DFF8CC90E3
:100B700009F10409C9F80080D1F8048008F40038AC
:100B8000B8F5003F0ED1DFF8B480A8F10408D8F81A
:100B9000008048EA0008DFF8A490A9F10409C9F828
:100BA00000800DE0DFF89480A8F10408D8F80080F8
:100BB00028EA0008DFF88490A9F10409C9F8008048
:100BC000D1F8048008F48038B8F5803F0ED1DFF802
:100BD0006C80A8F10808D8F8008048EA0008DFF81F
:100BE0005C90A9F10809C9F800800DE0DFF84C809D
:100BF000A8F10808D8F8008028EA0008DFF83C903F
:100C0000A9F10809C9F80080521CD1F8008028FA1F
:100C100002F8B8F1000F7FF489AEBDE8F887000054
:100C2000000011100010024000080140000C0140BB
:100C30000010014000140140080001400804014078
:100C40000AB1016101E00B040361704701480068CB
:100C50007047000008000020034800680349097835
:100C60000844014908607047080000201000002077
:100C700010B50848006840F01000064908600320DD
:100C800000F0A8F80F2000F007F800F02BF8002083
:100C900010BD00000020024070B504460E480078E8
:100CA0004FF47A71B1FBF0F00C490968B1FBF0F533
:100CB000284600F043FE08B1012070BD102C07D279
:100CC00000222146501E00F047F80548046001E06C
:100CD0000120F2E70020F0E71000002014000020BF
:100CE0000C00002008B500BF1148806940F00100E9
:100CF0000F4988610846806900F00100009000BF3C
:100D000000BF00BF0846C06940F08050C861084677
:100D1000C06900F08050009000BF00BF00BF0549CF
:100D2000486820F0E06040F00070486000BF08BDF7
:100D3000001002400000014001460846002809DB7F
:100D400000F01F0301229A4043099B0003F1E023B6
:100D5000C3F8002100BF70472DE9F05F80460D46C3
:100D60001646002701F018FE074639462A46334644
:100D700001F00700C0F1070ABAF1040F02D94FF0E1
:100D8000040A01E0C0F1070AD14600F1040ABAF1F1
:100D9000070F02D24FF0000A01E0A0F1030AD44687
:100DA0004FF0010A0AFA09FAAAF1010A0AEA020A4C
:100DB0000AFA0CFA4FF0010B0BFA0CFBABF1010B2A
:100DC0000BEA030B4AEA0B042146404601F0ECFD16
:100DD000BDE8F09F00BF00F00702064B19684FF610
:100DE000FF031940044B0B4343EA0221014B1960F6
:100DF00000BF70470CED00E00000FA0570B5044636
:100E00000D460CB9012070BD5A48006800F007007B
:100E1000A8420ED25748006820F0070028435549E1
:100E200008600846006800F00700A84201D00120D1
:100E3000E9E7207800F0020002281DD1207800F0B8
:100E40000400042805D14C48406840F4E0604A4959
:100E50004860207800F00800082805D1464840681E
:100E600040F46050444948604348406820F0F00036
:100E7000A168084340494860207800F0010078B339
:100E80006068012806D13C48006800F4003090B941
:100E90000120B8E76068022806D13748006800F0F2
:100EA000007040B90120AEE73348006800F002004E
:100EB00008B90120A7E73048406820F003006168C6
:100EC00008432D494860FFF7C1FE064609E0FFF7D9
:100ED000BDFE801B41F28831884202D9032092E78F
:100EE00007E02548406800F00C006168B0EB810F16
:100EF000EDD12048006800F00700A8420ED91D4837
:100F0000006820F0070028431A4908600846006876
:100F100000F00700A84201D0012074E7207800F01B
:100F20000400042807D11448406820F4E060E16818
:100F3000084311494860207800F00800082808D1CB
:100F40000D48406820F46050216940EAC1000A4918
:100F5000486000F0C7F808494968C1F30311074A1F
:100F6000515CC8400649086006480068FFF794FED7
:100F7000002048E7002002400010024032360008FE
:100F8000140000200C00002010B5FFF75FFE04469F
:100F90003D48006840F001003B49086006E0FFF76B
:100FA00055FE001B022801D9032010BD36480068F9
:100FB00000F002000028F2D03348006820F0F8006A
:100FC00040F0800030490860FFF740FE04460020F2
:100FD0002D49486008E0FFF739FE001B41F28831D7
:100FE000884201D90320E0E72748406800F00C0060
:100FF0000028F0D125482649086026480068FFF7F8
:101000004BFE08B10120D0E7FFF720FE04461E4842
:10101000006820F080701C49086006E0FFF716FEAB
:10102000001B022801D90320BFE71748006800F021
:1010300000700028F2D114494860FFF707FE04460B
:101040001148006820F410200F49086006E0FFF7FF
:10105000FDFD001B642801D90320A6E70A480068AB
:1010600000F400300028F2D10748006820F4802006
:10107000054908600846406A40F0807048620020D8
:10108000886000BF91E700000010024000127A0063
:10109000140000200C000020014800687047000088
:1010A0001400002000B5FFF7F7FF04494968C1F3B9
:1010B0000221034A515CC84000BD000000100240FC
:1010C0004236000800B5FFF7E7FF04494968C1F35D
:1010D000C221034A515CC84000BD0000001002401C
:1010E0004236000870B500210022002400230020B1
:1010F000134D696801F00C05F5B1042D02D0082DDF
:1011000019D101E00F4819E00F4DC1F38346AB5DE3
:1011100001F4803555B10A4D6D68C5F340450B4E5D
:10112000725D084D5D43B5FBF2F402E0084D03FB30
:1011300005F4204602E000BF024800BF00BF70BDBA
:101140000010024000127A002036000830360008F5
:1011500000093D00F8B504460CB90120F8BD20781F
:1011600000F00100002878D0F848406800F00C003A
:1011700004280CD0F548406800F00C00082811D174
:10118000F248406800F48030B0F5803F0AD1EF4863
:10119000006800F4003000285FD0606800285CD14F
:1011A0000120DBE700BF6068B0F5803F06D1E7486B
:1011B000006840F48030E549086028E0606858B96C
:1011C000E248006820F48030E04908600846006882
:1011D00020F4802008601AE06068B0F5A02F0BD1E1
:1011E000DA48006840F48020D84908600846006862
:1011F00040F4803008600AE0D448006820F4803071
:10120000D24908600846006820F48020086000BFCA
:10121000606888B1FFF71AFD054606E0FFF716FD86
:10122000401B642801D9032098E7C848006800F4EF
:1012300000300028F2D010E0FFF708FD054606E078
:10124000FFF704FD401B642801D9032086E7BF484F
:10125000006800F400300028F2D1207800F002008D
:10126000022857D1B948406800F00C0050B1B74887
:10127000406800F00C00082818D1B448406800F419
:10128000803098B9B148006800F0020020B12069B0
:10129000012801D0012061E7AC48006820F0F80087
:1012A000616940EAC100A949086033E02069E8B1FA
:1012B0000120A7490860FFF7C9FC054606E0FFF7D3
:1012C000C5FC401B022801D9032047E79F4800685E
:1012D00000F002000028F2D09C48006820F0F800DE
:1012E000616940EAC1009949086013E0002098490B
:1012F0000860FFF7ABFC054606E0FFF7A7FC401BC4
:10130000022801D9032029E79048006800F0020074
:101310000028F2D1207800F0080008282DD1A0691B
:10132000B8B101208B490860FFF790FC054606E044
:10133000FFF78CFC401B022801D903200EE78348ED
:10134000406A00F002000028F2D0012000F074FE94
:1013500013E000207F490860FFF778FC054606E0AF
:10136000FFF774FC401B022801D90320F6E67748FA
:10137000406A00F002000028F2D1207800F004005A
:10138000042873D100277148C06900F0805070B9FB
:1013900000BF6E48C06940F080506C49C861084683
:1013A000C06900F08050009000BF00BF01276A486C
:1013B000006800F48070B0B96748006840F480703D
:1013C00065490860FFF742FC054606E0FFF73EFC72
:1013D000401B642801D90320C0E65F48006800F480
:1013E00080700028F2D000BFE068012806D157487D
:1013F000006A40F001005549086227E0E06858B9EA
:101400005248006A20F00100504908620846006A0C
:1014100020F00400086219E0E06805280BD14B4871
:10142000006A40F00400494908620846006A40F03A
:10143000010008620AE04548006A20F001004349C3
:1014400008620846006A20F00400086200BFE068F5
:10145000A0B1FFF7FBFB054609E0FFF7F7FB401BD8
:1014600041F28831884202D9032077E622E03748EA
:10147000006A00F002000028EFD012E0FFF7E6FB60
:10148000054608E0FFF7E2FB401B41F28831884245
:1014900001D9032062E62D48006A00F0020000280E
:1014A000F0D1012F05D12948C06920F0805027498B
:1014B000C86100BFE069C8B32448406800F00C0070
:1014C000082860D0E069022848D100202049086639
:1014D000FFF7BCFB054606E0FFF7B8FB401B022800
:1014E00001D903203AE61948006800F0007000288E
:1014F000F2D1206AB0F5803F07D11448406820F44B
:101500000030A168084311494860D4E90801084344
:101510000E49496821F4741108430C4948600120C0
:101520000B490866FFF792FB054607E03DE0FFF731
:101530008DFB401B022801D903200FE603480068F9
:1015400000F000700028F2D02FE0000000100240F0
:1015500000004242800442420070004000201449D2
:101560000866FFF773FB054606E0FFF76FFB401BBD
:10157000022801D90320F1E50E48006800F0007050
:101580000028F2D111E0E069012800D1E6E5094820
:10159000466806F48031206A814204D106F4701155
:1015A000606A814201D00120D8E50020D6E5000024
:1015B000000042420010024010B504460CB9012060
:1015C00010BD606A38B96068B0F5827F00D105E06F
:1015D0000021E16102E00021216161610021A1623D
:1015E00094F8510028B9002084F85000204600F0FB
:1015F00043F8022084F851002068006820F0400081
:1016000021680860A08800F48270218901F40441F7
:101610000843A18901F400610843217C01F0020123
:101620000843217D01F001010843218B01F4007181
:101630000843217F01F0380108432021095D01F0B2
:1016400080010843218D01F400510843216808609E
:101650000421A06901EA1040216848602068C0693F
:1016600020F400602168C86100206065012084F8D2
:1016700051000020A4E7000010B586B00446002009
:1016800002900390049005901949206888422DD15A
:1016900000BF1848806940F48050164988610846A8
:1016A000806900F48050019000BF00BF00BF084671
:1016B000806940F0040088610846806900F00400F9
:1016C000019000BF00BFA0200290022003900320E1
:1016D000059002A90848FFF723F940200290002056
:1016E0000390049002A90448FFF71AF906B010BD50
:1016F0000030014000100240000801402DE9FF5F6A
:101700000446884691461D460E9E01200290002008
:10171000019000BF94F85000012803D1022004B0CA
:10172000BDE8F09F012084F8500000BFFFF78EFA5B
:10173000074694F851B060680390AA46BBF1010FC8
:101740000BD00398B0F5827F04D1A06810B9BBF12B
:10175000040F02D002200190E9E0B8F1000F03D09D
:10176000B9F1000F00D015B901200190DFE094F825
:101770005100042802D0052084F851000020606543
:10178000C4F83890E587A587C4F83080E586A5863B
:10179000206460642068006800F04000402805D0A4
:1017A0002068006840F0400021680860E068B0F5FB
:1017B000006F4DD1606810B1BAF1010F09D1206BF3
:1017C00000882168C860206B801C2063E08E401E6A
:1017D000E08636E02068806800F00200022810D120
:1017E000E08E70B1029801280BD1206B008821682F
:1017F000C860206B801C2063E08E401EE0860020C5
:1018000002902068806800F0010068B1E08F58B154
:101810002068C068A16B0880A06B801CA063E08F6B
:10182000401EE08701200290FFF710FAC01BB04273
:1018300007D3701C28B103200190012084F85100C7
:1018400075E0E08E0028C5D1E08F0028C2D14DE0C0
:10185000606810B1BAF1010F09D1206B00782168DE
:101860000873206B401C2063E08E401EE08637E04A
:101870002068806800F00200022810D1E08E70B16C
:10188000029801280BD1206B007821680873206B27
:10189000401C2063E08E401EE086002002902068FD
:1018A000806800F0010068B1E08F58B12068C0681E
:1018B000A16B0870A06B401CA063E08F401EE08706
:1018C00001200290FFF7C2F9C01BB04201D3701C87
:1018D00000B92EB903200190012084F8510026E0C0
:1018E000E08E0028C4D1E08F0028C1D13A463146AD
:1018F000204600F0B5FB20B101200190202060655A
:1019000015E0A06850B900BF002000902068C068B2
:10191000009020688068009000BF00BF606D10B12B
:101920000120019002E0012084F8510000BF00BFB7
:10193000002084F8500000BF0198F0E670B504461E
:101940002546681EB0F1807F01D301200FE0681E9C
:101950004FF0E02148610F214FF0FF3001F024F8F3
:1019600000204FF0E021886107200861002070BD51
:10197000F8B504460E46174694F8420020282ED1AA
:1019800006B10FB90120F8BD01202063002060637B
:101990003A463146204600F00FFE0546EDB9206B71
:1019A000012819D100BF0020009020680068009035
:1019B00020684068009000BF00BF00BF00BF2168E2
:1019C0000C3151E8001F41F0100021680C3141E852
:1019D0000002002AF3D100E001252846D3E70220C7
:1019E000D1E70000034B02689A4202D10122024B68
:1019F0001A70704700380140040000207047000052
:101A00002DE9F84F0446206805682068C6682068FC
:101A100047694FF00009CA4605F00F09B9F1000FF8
:101A20000AD105F0200038B106F0200020B1204690
:101A300000F0C6FCBDE8F88FB9F1000F7BD007F0CD
:101A4000010018B906F49070002874D005F0010068
:101A500030B106F4807018B1606C40F00100606431
:101A600005F0040030B107F0010018B1606C40F0DF
:101A70000200606405F0020030B107F0010018B107
:101A8000606C40F00400606405F0080048B106F0A6
:101A9000200010B907F0010018B1606C40F0080098
:101AA0006064606C002845D005F0200028B106F085
:101AB000200010B1204600F083FC20684069C0F38C
:101AC000801A606C00F0080010B9BAF1000F2CD039
:101AD000204600F01CFC2068406900F0400000B384
:101AE00000BF00BF2168143151E8001F21F0400001
:101AF0002168143141E80002002AF3D100BFE06BF5
:101B000050B17748E16B4863E06BFEF77BFC88B12E
:101B1000E06B416B88470DE02046FFF76FFF09E05F
:101B200009E02046FFF76AFF04E02046FFF766FF62
:101B3000002060647EE7206B012877D105F010005B
:101B4000002873D006F010000028FAD000BF002053
:101B5000009020680068009020684068009000BFF6
:101B600000BF2068406900F0400000285FD0E06BB3
:101B7000006840681FFA80F8B8F1000F55D0A08DBA
:101B8000404552DDA4F82E80E06B8069202843D0C8
:101B900000BF00BF21680C3151E8001F21F48070A4
:101BA00021680C3141E80002002AF3D100BF00BFD8
:101BB00000BF2168143151E8001F21F001002168A5
:101BC000143141E80002002AF3D100BF00BF00BF7A
:101BD0002168143151E8001F21F0400021681431C0
:101BE00041E80002002AF3D100BF202084F842001F
:101BF0000020206300BF00BF21680C3151E8001FA6
:101C000021F0100021680C3141E80002002AF3D1D4
:101C100000BFE06BFEF7CAFB02206063A08DE28D7F
:101C2000801A81B22046FFF7DDFE03E742E0A08D77
:101C3000E18D401A1FFA80F8E08DD0B3B8F1000FA3
:101C400037D000BF00BF21680C3151E8001F21F4DC
:101C5000907021680C3141E80002002AF3D100BFE6
:101C600000BF00BF2168143151E8001F21F00100BE
:101C70002168143141E80002002AF3D100BF20207E
:101C800084F842000020206300BF00BF21680C31AF
:101C900051E8001F21F0100021680C3141E80002DA
:101CA000002AF3D100BF0220606341462046FFF7BF
:101CB00099FEBFE605F0800030B106F0800018B153
:101CC000204600F0DDFCB5E605F0400030B106F03E
:101CD000400018B1204600F050FBABE600BFA9E67B
:101CE000D321000810B504460CB9012010BDA0692D
:101CF00000B100E000BF94F8410028B9002084F84A
:101D00004000204600F02AF8242084F84100206892
:101D1000C06820F400502168C860204600F0CEFB67
:101D20002068006920F490402168086120684069BB
:101D300020F02A00216848612068C06840F4005003
:101D40002168C86000206064202084F8410084F885
:101D500042000020606300BFC8E7000010B586B0F5
:101D60000446002002900390049005902A492068C0
:101D700088424FD100BF2948806940F480402749FC
:101D800088610846806900F48040019000BF00BF70
:101D900000BF0846806940F00400886108468069F9
:101DA00000F00400019000BF00BF4815029002201F
:101DB00003900320059002A91948FEF7B1FD4FF4E6
:101DC0008060029000200390049002A91448FEF75E
:101DD000A7FD1448144908600020486000211248FB
:101DE00081608021C1600021016141618161C16127
:101DF000FEF72EFC08B1FEF724FA00BF0A48E063A4
:101E0000446200BF002205212520FEF7A5FF252002
:101E1000FEF792FF06B010BD0038014000100240EE
:101E20000008014058000240DC0000207047704765
:101E30002DE9F84F04460E46174699464FF0000A22
:101E400094F8410020284AD106B117B90120BDE815
:101E5000F88F00206064212084F84100FEF7F6FE30
:101E60008246A784E784A068B0F5805F04D120692A
:101E700010B90025B04602E035464FF000081BE0DF
:101E80005346002280212046CDF8009000F028FC27
:101E900008B10320DBE745B9B8F80000C0F308003B
:101EA0002168486008F1020803E02878216848604A
:101EB0006D1CE08C401EE084E08C0028E0D153468D
:101EC000002240212046CDF8009000F009FC08B126
:101ED0000320BCE7202084F841000020B7E702205F
:101EE000B5E7704700BFFEE708B500BF0A48406984
:101EF00040F00100084948610846406900F00100CF
:101F0000009000BF00BF002211460F20FEF724FF03
:101F10000F20FEF711FF08BD0010024000B585B08C
:101F20000020019002900390049000BF1648806941
:101F300040F02000144988610846806900F02000C4
:101F4000009000BF00BF00BF0846806940F0040059
:101F500088610846806900F00400009000BF00BF5F
:101F6000012210210948FEF76BFE1020019001208C
:101F70000290002003900320049001A90348FEF77B
:101F8000CFFC05B000BD0000001002400008014079
:101F900010B50E480E4908604FF482704860002169
:101FA0000B488160C160016141614FF40071816142
:101FB0001021C16100210162416281620A21C16276
:101FC000FFF7FAFA08B1FEF73CF910BD0030014006
:101FD0003C00002010B50B480B4908604FF4E1307D
:101FE0004860002108488160C16001610C214161A5
:101FF00000218161C161FFF775FE08B1FEF721F98B
:1020000010BD0000003801409400002000BFFEE732
:1020100000BFFEE710B504466423012221460448B0
:10202000FFF706FF4FF4FA70FEF794FB10BD0000B7
:10203000940000207047000008B508490968C908E5
:102040004FF47A72B1FBF2F14143009100BF00BF3F
:1020500000994A1E00920029F9D108BD1400002001
:10206000F8B504460D4616462B4600228021204630
:10207000009600F009F828B1606D40F0200060651E
:102080000320F8BD0020FCE72DE9F84F04460D467B
:1020900090461E46DDF82890FEF7D8FDA0EB09001B
:1020A000371AFEF7D3FD82462C480068C0F3CB30C8
:1020B0007843009045E0701C002842D0FEF7C6FD32
:1020C000A0EB0A00B84200D2A7BB2068406820F00D
:1020D000E000216848606068B0F5827F0DD1A0689B
:1020E000B0F5004F03D0A068B0F5806F05D120682F
:1020F000006820F0400021680860A06AB0F5005F29
:102100000DD100BF2068006820F4005021680860ED
:102110002068006840F400502168086000BF01207A
:1021200084F8510000BF002084F8500000BF032055
:10213000BDE8F88FFFE7009800B900270098401E1F
:102140000090206880682840A84201D1012000E06A
:1021500000204045AFD10020EAE700001400002035
:10216000704710B5FEF778FD10BD00B58FB028217F
:1021700005A8FDF7F2FF14216846FDF7EEFF0120E8
:10218000059000040690002007900120099002208D
:102190000C90C1030D914FF4E0110E9105A8FEF7CC
:1021A000D9FF08B1FEF74DF80F20009002200190F2
:1021B000002002904FF480600390002004900221E0
:1021C0006846FEF71BFE08B1FEF73BF80FB000BDF6
:1021D000704770B505466C6A0020E085E0842046B3
:1021E000FFF70CFC70BD70B506460025746A2068C8
:1021F0004069C0F3C01594F84100212805D125B1EC
:102200000020E084204600F0C8F820684069C0F350
:10221000801594F84200222805D125B10020E085E0
:10222000204600F074F8606C40F0100060642046B6
:10223000FFF7E4FB70BD70B505466C6A286800685E
:1022400000F02000002842D1E08500BF00BF2168D7
:102250000C3151E8001F21F4807021680C3141E8F5
:102260000002002AF3D100BF00BF00BF2168143173
:1022700051E8001F21F001002168143141E80002FB
:10228000002AF3D100BF00BF00BF2168143151E81C
:10229000001F21F040002168143141E80002002AAB
:1022A000F3D100BF202084F84200206B01280ED11A
:1022B00000BF00BF21680C3151E8001F21F0100061
:1022C00021680C3141E80002002AF3D100BF002050
:1022D0006063206B012804D1A18D2046FFF782FBAB
:1022E00002E02046FFF7A2FD70BD70B505466C6A9E
:1022F00001206063206B012805D1A08D4108204694
:10230000FFF770FB02E02046FFF791FD70BD00BFB4
:1023100000BF02680C3252E8002F22F4907102686C
:102320000C3242E80013002BF3D100BF00BF00BF06
:102330000268143252E8002F22F0010102681432C0
:1023400042E80013002BF3D100BF016B01290ED12D
:1023500000BF00BF02680C3252E8002F22F01001CB
:1023600002680C3242E80013002BF3D100BF202199
:1023700080F8421000210163704710B504462068C0
:10238000C06820F040002168C860202084F8410027
:102390002046FFF7A6FD002010BD00BF00BF026869
:1023A0000C3252E8002F22F0C00102680C3242E8E1
:1023B0000013002BF3D100BF202180F8411070479B
:1023C000F8B5044694F84200222875D1A068B0F50B
:1023D000805F0CD1206950B90025A66A206840684A
:1023E000C0F308003080A06A801CA06215E0A56AD6
:1023F0000026A068B0F5805F03D0A06828B92069E6
:1024000018B920684068287004E02068406800F02F
:102410007F002870A06A401CA062E08D401E80B240
:10242000E085002846D12068C06820F0200021689F
:10243000C8602068C06820F480702168C860206887
:10244000406920F0010021684861202084F84200A2
:1024500000206063206B012826D10020206300BF8C
:1024600000BF21680C3151E8001F21F010002168E5
:102470000C3141E80002002AF3D100BF2068006857
:1024800000F0100010280AD100BF00200090206842
:102490000068009020684068009000BF00BFA18DD8
:1024A0002046FFF79FFA02E02046FFF7BFFC00201E
:1024B000F8BD01E00020FBE70220F9E770B5044613
:1024C0002168096921F44051E268114322681161D1
:1024D0002269A1681143626941EA02052168C9685D
:1024E00041F20C62914329432268D1602168496915
:1024F00021F44071A2691143226851612D4A21687B
:10250000914202D1FEF7DEFD01E0FEF7CBFD00EBCC
:10251000C00101EB001162689200B1FBF2F100EB27
:10252000C00202EB001263689B00B2FBF3F264236B
:10253000B2FBF3F202EBC20303EB0212A1EB820146
:10254000322202EB01116422B1FBF2F101F0F00141
:1025500000EBC00202EB001263689B00B2FBF3F2D7
:102560006423B2FBF3F201EB021200EBC00101EBBA
:10257000001163689B00B1FBF3F100EBC00303EBB8
:1025800000136668B600B3FBF6F36426B3FBF6F3FC
:1025900003EBC30606EB0313A1EB8301322303EB2A
:1025A00001116423B1FBF3F101F00F011144226822
:1025B000916070BD0038014077B581B00446154682
:1025C0000298A062A58500206064222084F8420061
:1025D0002848E16B88622848E16BC8622748E16BB4
:1025E00008630020E16B486302AE32682368191D5E
:1025F0002B46E06BFEF760F800BF002000902068DB
:102600000068009020684068009000BF00BF20690B
:1026100070B100BF00BF21680C3151E8001F41F4C8
:10262000807021680C3141E80002002AF3D100BF1C
:1026300000BF00BF2168143151E8001F41F00100C4
:102640002168143141E80002002AF3D100BF00BF25
:1026500000BF2168143151E8001F41F0400021689B
:10266000143141E80002002AF3D100BF002004B079
:1026700070BD000037220008EB220008E7210008A7
:10268000014691F84100212828D18868B0F5805F83
:102690000BD1086948B90A6A1088C0F308000B68B2
:1026A0005860086A801C086205E00B6A581C0862C2
:1026B00018780B685860C88C401E80B2C88458B91E
:1026C0000868C06820F080000B68D8600868C0689F
:1026D00040F040000B68D860002070470220FCE703
:1026E0002DE9F04104460D4617469846069E34E013
:1026F000701C88B32EB1FEF7A9FAA0EB0800B04217
:102700002BD900BF00BF21680C3151E8001F21F414
:10271000D07021680C3141E80002002AF3D100BFDB
:1027200000BF00BF2168143151E8001F21F00100F3
:102730002168143141E80002002AF3D100BF2020B3
:1027400084F8410084F8420000BF002084F8400073
:1027500000BF0320BDE8F081FFE720680068284043
:10276000A84201D1012000E00020B842C0D00020E2
:10277000F0E7000010B50248FFF742F910BD000075
:102780009400002000BFFEE770B5A0B004465E488C
:102790000078012807D100205B4908705B49087068
:1027A000FF205B49087080216846FDF7D6FC802633
:1027B000002558480078012833D15748007850BB8D
:1027C000207801282BD1607850490978884226D199
:1027D000A0784F490978884221D1002005E0C11C2A
:1027E000615C0DF80010411CC8B28028F7DB802125
:1027F0006846FDF7D1FC054694F8840094F88310F0
:1028000040EA0120A84207D144492C2000F0E4F915
:1028100000204349087004E0152020B070BD152049
:10282000FBE73C480078002862D13B48007801284B
:102830005ED12078012859D16078344909788842DE
:1028400054D1A0783249097888424FD1002005E060
:10285000C11C625C33490A54411CC8B28028F7DBB2
:1028600080213048FDF798FC054694F8840094F8E0
:10287000831040EA0120A84236D100201CE02949FB
:1028800011F82020012101EB80032649C95C02EBED
:102890000122022101EB80032249C95C02EB0142C3
:1028A000032101EB80031F49C95C02EB01621E4951
:1028B00041F82020411CC8B22028E0DB1B480078EA
:1028C000164900FB061018490C39086020200881C1
:1028D000174A2C2114480C3800F08BFB1348007861
:1028E000401C1249087003E0152096E7152094E774
:1028F00006480078401C0549087005480078401ECD
:1029000003490870062088E72700002028000020DF
:10291000290000202500002026000020005000088B
:10292000240000204C0300204C0100202A0000203D
:102930000000010810B5044606202070642301221F
:1029400021460248FFF774FA10BD000094000020F1
:1029500010B504464320207064230122214602481A
:10296000FFF766FA10BD00009400002010B5044681
:10297000152020706423012221460248FFF758FAEF
:1029800010BD000094000020014A024900F02FB859
:102990000D2C00082C00002002480068C0F3022023
:1029A000704700000CED00E010B5002804DB0A07BA
:1029B000130E054A135406E00A07140E034A00F0EA
:1029C0000F031B1FD45410BD00E400E018ED00E01D
:1029D00002E008C8121F08C1002AFAD170477047E8
:1029E000002001E001C1121F002AFBD170472DE930
:1029F000F04116460F460446002503E03946B0472D
:102A0000641C6D1C20780028F8D12846BDE8F081B0
:102A100010B501460889B0F5807F26DC002021E052
:102A200001F5037212F82030012202EB800401F557
:102A30000372125D03EB0223022202EB800401F514
:102A40000372125D03EB0243032202EB800401F5E3
:102A50000372125D03EB026301F10C0242F82030B5
:102A6000421C90B20A898242DADC10BD70B5C0B057
:102A70004FF4807500F060F8680200F055FD002406
:102A800016E0234805FB0400224908604020088125
:102A90000821204800F020FA1E4909898A0005FB18
:102AA00004F101F500301C4900F0E6FC601CC4B2E2
:102AB0004FF4304090FBF5F0A042E2DA4FF4807121
:102AC0006846FDF74AFB4FF480726946134800F0F0
:102AD00001FD134E9DF800009DF8011000EB012050
:102AE0009DF8021000EB01409DF8031000EB01601F
:102AF000B04205D10BA0FFF747FF0EA0FFF744FF40
:102B00004FF443710348FDF728FB40B070BD00004F
:102B100000500008400100204C03002000AF0200DC
:102B2000112233444261636B757020537563636592
:102B3000656465640D0A000010B50C480C49086016
:102B400001200881002006E00A4A09490C3141F8B9
:102B50002020411CC8B2064909898142F4DC0123C6
:102B6000054A0649024800F0E1F910BD00FF0008DF
:102B700040010020112233440000010800FC00083D
:102B80000146087800064A7800EB02408A7800EB9C
:102B90000220CA781044704710B505492C2000F077
:102BA0001BF804A0FFF7F0FE0AA0FFF7EDFE10BD32
:102BB0000050000844656C657465204170702050B9
:102BC000726F6772616D20537563636573730D0A6D
:102BD000000000000D0A000030B585B004460D4627
:102BE00000200490039402950090FDF781FE04A953
:102BF0006846FDF7C3FD0498401C20B1FDF716FEA2
:102C0000002005B030BDFF20FBE7000013B50C46E7
:102C10004FF47A73012269460248FFF709F90098D8
:102C20001CBD000094000020014608787047014652
:102C30000868704710B504462068B0F1005F23D3E0
:102C40002068124988421FD872B600204FF0E02158
:102C5000086148618861FEF797F9002009E04FF0AC
:102C6000FF320B4941F820200A4941F82020411C3D
:102C7000C8B20828F3DB6068074908602046FDF702
:102C80003FFA05480068804710BD0000FF4F002054
:102C900080E100E080E200E0200000201CB5FDF7AC
:102CA000E7FFFFF762FAFFF739F9FFF71DF9FFF7C2
:102CB0006FF9FFF78FF90A2216491748FEF758FEF9
:102CC0004FF47A70FDF746FD0020019000906946B0
:102CD00001A800F04BFCBDF8000044F21701884247
:102CE00001D100F035F8012412E0012C10D10024AC
:102CF0000AA0FFF749FE002508E00DA0FFF744FEFB
:102D00004FF47A70FDF726FD681CC5B2032DF4DB85
:102D1000EBE7000030000020940000205265616461
:102D200020573235513634204572726F720D0A00C9
:102D3000506C6561736520506F776572204F6E200F
:102D4000416E6420526573746172740D0A00000054
:102D500010B534480021016041600822014600207E
:102D600000F0B8FB2F48FFF70BFF2F4988424FD1E7
:102D700000F0D0FA4BE02D480078012847D1002020
:102D80002A4908702A4800783138052832D2DFE80D
:102D900000F00306191F280000F07AF92AE0254800
:102DA0000078012806D124A0FFF7EEFD2548FFF7A3
:102DB00041FF06E024A0FFF7E7FD2FA0FFF7E4FDA9
:102DC00018E000BF2DA0FFF7DFFDFFF74FFE11E079
:102DD0000120184908702CA0FFF7D6FD00F024FA56
:102DE00008E00020134908702AA0FFF7CDFDFFF787
:102DF000D3FE00BF00BF0E48002101604160018189
:102E00000A2201462648FEF7B3FD00F083FAB2E736
:102E100024A0FFF7B9FD18A0FFF7B6FD0948FFF79A
:102E200009FF10BD180000202211BBAA04000020D9
:102E30003000002024000020456E74657220320DA1
:102E40000A000000005000084E6F204170702050B2
:102E5000726F6772616D202C20506C656173652004
:102E6000557064617465204170702050726F677294
:102E7000616D0D0A000000000D0A0000456E7465CA
:102E80007220330D0A000000456E74657220340D07
:102E90000A000000456E74657220350D0A000000BE
:102EA000940000206A756D7020746F206170700D41
:102EB0000A00000001B582B00020019064200123C7
:102EC00001AA02A900900348FEF718FC9DF804002F
:102ED0000EBD00003C00002070B504460E46082ED2
:102EE00002D0322E20D10EE0002507E021684819DB
:102EF000FFF79AFE04F5037148556D1C2089B5EB68
:102F0000800FF3D310E000250AE00422216802FBC1
:102F10000510FFF78CFE04F5867141F825006D1C45
:102F20002089A842F1D800BF00BF70BD2DE9F04351
:102F300085B004460E46174698462068B04214D322
:102F40002068B84211D22089216801EB80006060BE
:102F50006068B84203D9002005B0BDE8F08320784E
:102F600000F0030018B10020F6E70020F4E74FF06E
:102F7000000900200490CDF80C8002960090FDF727
:102F8000B7FC04A96846FDF7F9FB0498401C18B18A
:102F9000FDF74CFC0020DFE700251DE004F10C00EC
:102FA00050F825C00422206802FB05016246002378
:102FB0000220FDF745FC58B9206850F8251004F1AF
:102FC0000C0050F82500814205D04FF0010906E0C1
:102FD0004FF0010903E06D1C2089A842DED800BF34
:102FE000FDF724FCB9F1000F01D00020B4E7207AEE
:102FF000B2E72DE9F04104460F4616462068B84274
:1030000013D32068B04210D22089216801EB8000E0
:1030100060606068B04202D90020BDE8F08120788D
:1030200000F0030018B10020F7E70020F5E7FDF7F6
:103030005FFC4FF0000800251DE004F10C0050F883
:1030400025C00422206802FB0501624600230220FD
:10305000FDF7F6FB58B9206850F8251004F10C0074
:1030600050F82500814205D04FF0010806E04FF0EE
:10307000010803E06D1C2089A842DED800BFFDF7DF
:10308000D5FBB8F1000F01D00020C6E7207AC4E7D5
:1030900030B5A5B00A2251495148FEF769FC00F04D
:1030A00067F996E04F4800780128FAD100204D4991
:1030B00008704A48007831287ED1902101A8FDF798
:1030C0004CF8012400250120474908700020474999
:1030D00008708C2201A94248FEF74AFC71E0012CDD
:1030E00005D143208DF8900024A8FEF793FF3D48BA
:1030F0000078012865D100203A4908709DF8040045
:10310000322811D18C2101A8FDF727F80A22334972
:103110003348FEF72DFC36A0FFF736FC35A0FFF74D
:1031200033FC00F025F94DE09DF8040001281DD185
:10313000E5B9002401A8FFF727FB062813D1642076
:10314000FDF708FB24A8FFF7F5FB274800780128C6
:103150000CD100202449087001202449087024A8BB
:10316000FFF7F6FB02E024A8FFF700FC9DF804003F
:1031700004280FD101240120234908701A4908703E
:1031800000201A49087024A8FFF7D4FB01201F492A
:10319000087001259DF8040018280BD10124012096
:1031A000194908701049087000201049087018A0CB
:1031B000FFF7EAFB8C2200E006E001A90848FEF7D1
:1031C000D7FB8CE700BF00BF04480078322800D14D
:1031D00000E067E700BF25B030BD000030000020F0
:1031E000940000200400002025000020260000207C
:1031F0000D0A00005472616E736D697373696F6EAE
:1032000020456E640D0A00002700002024000020E5
:1032100043616E63656C205472616E736D69737384
:10322000696F6E0D0A00000070B54FF480752B4970
:103230002C20FFF7D1FC00241BE0284805FB0400EC
:10324000274908604020088109898A0005FB04F1AC
:1032500001F50030234900F03DF92148FFF7D8FB84
:103260001E4805FB0401204A1D48FFF7C2FE601CF2
:10327000C4B24FF4304090FBF5F0A042DDDC4FF4D7
:1032800043711748FCF769FF184E19481449086044
:103290000120088108211248FFF71EFE104890F80F
:1032A0000C1290F80D0201EB00210D4890F80E026F
:1032B00001EB00410A4890F80F0201EB0060B042B8
:1032C00005D10CA0FFF760FB11A0FFF75DFB4FF4E9
:1032D00043710348FCF741FF70BD00000050000837
:1032E000400100204C03002000000108112233445B
:1032F00000FF0008557064617465204261636B755E
:1033000070205375636365656465640D0A00000091
:103310000D0A000010B50E48FFF736FB0D48FFF709
:1033200033FB0D48FFF730FB0C48FFF72DFB0C4833
:10333000FFF72AFB0B48FFF727FB0B48FFF724FB9F
:103340000348FFF721FB0948FFF71EFB10BD0000F3
:103350009C370008643700084C36000884360008A3
:10336000BC360008F43600082C370008D0370008B7
:1033700010B508A0FFF708FB15A0FFF705FB22A07A
:10338000FFF702FB2EA0FFF7FFFA3AA0FFF7FCFAC7
:1033900010BD00002F2A2A2A2A2A2A2A2A2A2A2A63
:1033A0002A2A2A2A2A202020202055704461746568
:1033B000204D656E75202020202A2A2A2A2A2A2AB2
:1033C0002A2A2A2A2A2A2A2A2A2F0D0A000000003D
:1033D0002A2020202053656E64204320416E642003
:1033E000526561647920546F20446F776E6C6F6111
:1033F0006420202020202020202020202020202089
:1034000020312A0D0A0000002A2020202052657455
:1034100075726E2055736572204D656E7520202083
:10342000202020202020202020202020202020209C
:10343000202020202020202020322A0D0A000000F9
:103440002F2A2A2A2A2A2A2A2A2A2A2A2A2A2A2AD7
:103450002A2A2A2A2A2A2A2A2A2A2A2A2A2A2A2ACC
:103460002A2A2A2A2A2A2A2A2A2A2A2A2A2A2A2ABC
:103470002A2A2A2F0D0A00002DE9F04104460E46A3
:10348000174600F0BBF8002210211148FDF7D8FBC9
:103490000220FFF70FFDC4F30740FFF70BFDC4F355
:1034A0000720FFF707FDE0B2FFF704FD002503E06A
:1034B000705DFFF7FFFC6D1CBD42F9D301221021A6
:1034C0000348FDF7BDFB00F079F8BDE8F08100008E
:1034D000000801402DE9F04104460E46174600223F
:1034E00010211048FDF7ACFB0320FFF7E3FCC4F309
:1034F0000740FFF7DFFCC4F30720FFF7DBFCE0B277
:10350000FFF7D8FC002504E0FF20FFF7D3FC70553F
:103510006D1CBD42F8D3012210210248FDF790FB3B
:10352000BDE8F0810008014010B5044600F066F8DF
:10353000002210210C48FDF783FBD820FFF7BAFCCE
:10354000C4F30740FFF7B6FCC4F30720FFF7B2FC53
:10355000E0B2FFF7AFFC012210210348FDF770FB3A
:1035600000F02CF810BD00000008014070B50546C1
:103570000C46002210211048FDF762FB9F20FFF748
:1035800099FCFF20FFF796FC2870FF20FFF792FCC4
:10359000208020884FF6FF7101EA00202080FF2064
:1035A000FFF788FC2188084320800122102102486F
:1035B000FDF746FB70BD00000008014010B54FF656
:1035C000FF74002210210C48FDF73AFB0520FFF79D
:1035D00071FC02E0641E04B906E0FF20FFF76AFCFC
:1035E00000F001000028F5D100BF0122102102489F
:1035F000FDF726FB002010BD0008014010B5002299
:1036000010210648FDF71CFB0620FFF753FC0122A2
:1036100010210248FDF714FB10BD00000008014016
:1036200002030405060708090A0B0C0D0E0F101003
:103630000102000000000000000001020304060770
:103640000809000000000102030400002A202020D5
:1036500020456E74657220557044617465204D6517
:103660006E752020202020202020202020202020B7
:10367000202020202020202020200920312A0D0A6F
:10368000000000002A202020204C6F61642041703F
:10369000702050726F6772616D20202020202020E2
:1036A000202020202020202020202020202020201A
:1036B00020200920322A0D0A000000002A202020A4
:1036C000204261636B757020466C61736820507294
:1036D0006F6772616D20546F2057323551787820B2
:1036E000202020202020202020200920332A0D0AFD
:1036F000000000002A20202020557064617465209D
:103700004261636B75702050726F6772616D20202B
:1037100020202020202020202020202020202020A9
:1037200020200920342A0D0A000000002A20202031
:103730002044656C657465204170702050726F671D
:1037400072616D2020202020202020202020202099
:10375000202020202020202020200920352A0D0A8A
:10376000000000002F2A2A2A2A2A2A2A2A2A2A2A5C
:103770002A2A2A2A2A202020202055736572204DCB
:10378000656E75202020202A2A2A2A2A2A2A2A2AF7
:103790002A2A2A2A2A2A2A2F0D0A00002F2A2A2A10
:1037A0002A2A2A2A2A2A2A2A2A2A2A2A2A2A2A2A79
:1037B0002A2A2A2A2A2A2A2A2A2A2A2A2A2A2A2A69
:1037C0002A2A2A2A2A2A2A2A2A2A2A2A2A2A2A2F54
:1037D0000D0A0000F437000800000020300000004F
:1037E000D0290008243800083000002020080000FC
:1037F000E0290008000000000000000000000000B8
:1038000010000000010000000024F400000000008F
:1038100000000000000000000100000100000000A6
:0438200000000000A4
:04000005080000ED02
:00000001FF
